:020000020000FC
:100000000EEF0AB90E94450104E20BB900E20BB9F8
:1000100004E80BB900E80BB90E94370104E00BB902
:1000200000E00BB904EC0BB900EC0BB90E943701EE
:1000300004E00BB900E00BB904E60BB900E60BB91C
:100040000E94370104E00BB900E00BB904E10BB9E1
:1000500000E10BB90E9437010CE40BB908E40BB9BD
:100060000CE40BB908E40BB90E9437010CE60BB99C
:1000700008E60BB90CE90BB908E90BB90E94370186
:100080000CE60BB908E60BB90CE50BB908E50BB9A2
:100090000E9437010CE60BB908E60BB90CE70BB967
:1000A00008E70BB90E9437010CE60BB908E60BB95B
:1000B0000CEF0BB908EF0BB90E9437010CE20BB93A
:1000C00008E20BB90CE00BB908E00BB90E9437014C
:1000D0000CE40BB908E40BB90CE90BB908E90BB94E
:1000E0000E9437010CE70BB908E70BB90CE60BB916
:1000F00008E60BB90E9437010CE60BB908E60BB90C
:100100000CE10BB908E10BB90E9437010CE60BB901
:1001100008E60BB90CEE0BB908EE0BB90E943701DB
:100120000CE20BB908E20BB90CE00BB908E00BB913
:100130000E9437010CE40BB908E40BB90CE90BB9C8
:1001400008E90BB90E9437010CE60BB908E60BB9B8
:100150000CEC0BB908EC0BB90E9437010CE60BB99B
:1001600008E60BB90CEC0BB908EC0BB90E9437018F
:100170000CE60BB908E60BB90CE50BB908E50BB9B1
:100180000E9437010CE70BB908E70BB90CE30BB978
:1001900008E30BB90E9437010CE60BB908E60BB96E
:1001A0000CE30BB908E30BB90E9437010CE60BB95D
:1001B00008E60BB90CE10BB908E10BB90E94370155
:1001C0000CE70BB908E70BB90CE30BB908E30BB963
:1001D0000E9437010CE20BB908E20BB90CE00BB935
:1001E00008E00BB90E9437010CE40BB908E40BB925
:1001F0000CEC0BB908EC0BB90E9437010CE60BB9FB
:1002000008E60BB90CEF0BB908EF0BB90E943701E8
:100210000CE70BB908E70BB90CE00BB908E00BB918
:100220000E9437010CE60BB908E60BB90CE50BB9D7
:1002300008E50BB90E9437010CE70BB908E70BB9C9
:100240000CEA0BB908EA0BB90E9437010E9432018F
:1002500004E10BB900E10BB904E80BB900E80BB9F4
:100260000C9426010E9445010E944501089520EA50
:1002700018EC00000000000000000000000000007A
:100280001A95B9F72A95A1F708950E9437010E949F
:1002900037010E9437010E9437010E9437010895FB
:00000001FF
