:020000020000FC
:040000000C94260036
:100048000C942C010EEF0AB90FE004B900E005B9D1
:1000580008B90FE008B90E943F0104E20BB900E2B9
:100068000BB904E80BB900E80BB90E94310104E0B0
:100078000BB900E00BB904EE0BB900EE0BB90E9406
:10008800310104E00BB900E00BB904E60BB900E656
:100098000BB90E94310104E00BB900E00BB904E18F
:1000A8000BB900E10BB90E94310108E90093C100C6
:1000B80007E60093C400789460E210E021E006B1FE
:1000C8000F700F3011F40C9463000E3039F00D30BE
:1000D80041F00B3049F05CE00C947B0050E00C944C
:1000E8007B0054E00C947B0058E00C947B000FE0FC
:1000F80007B900E008B900E004B90FE005B90E94AB
:10010800310103B10F700E3051F00D3061F00B303A
:1001180071F003E0500F5F3071F00C94B40000E010
:10012800500F0C94B40001E0500F0C94B40002E09E
:10013800500F0C94B400613750F40FE0600F0E9428
:1001480031010E9417010E9425010C94630060E2AE
:100158000E9431010E9417010E9425010C9463003E
:10016800560F0E94BD000E9417010E9425010C94A1
:100178006300052F007F0C600BB9007F08600BB986
:100188000E943101550F550F550F550F5C605BB933
:10019800507F58600BB90E9431011395103108F453
:1001A8000895183258F404E10BB900E10BB904E8DA
:1001B8000BB900E80BB90E9431010895183208F410
:1001C8000895213019F00E940501089504E00BB943
:1001D80000E00BB90E94310104E20BB900E20BB94F
:1001E8000E94310104EC0BB900EC0BB90E943101FB
:1001F80004E00BB900E00BB90E94310110E022E0E5
:100208000895193209F0089504E00BB900E00BB91C
:100218000E94310104E10BB900E10BB90E943101E0
:1002280021E010E0089500E007B90FE008B90000E8
:100238000000000004B900E005B90000000000005B
:1002480008950E94310106B10F700F30D1F708955B
:100258005091C6000E94BD00189540EA38EC000095
:100268000000000000000000000000003A95B9F707
:100278004A95A1F708950E9431010E9431010E9418
:0C02880031010E9431010E9431010895F3
:00000001FF
